{"contracts/Voting.sol":{"Voting":{"abi":[{"inputs":[],"stateMutability":"nonpayable","type":"constructor"},{"inputs":[{"internalType":"string","name":"_name","type":"string"},{"internalType":"uint256","name":"_budget","type":"uint256"}],"name":"addCandidate","outputs":[],"stateMutability":"nonpayable","type":"function"},{"inputs":[{"internalType":"address","name":"","type":"address"}],"name":"candidate","outputs":[{"internalType":"uint256","name":"","type":"uint256"}],"stateMutability":"view","type":"function"},{"inputs":[{"internalType":"uint256","name":"","type":"uint256"}],"name":"candidateDetails","outputs":[{"internalType":"uint256","name":"candidateId","type":"uint256"},{"internalType":"string","name":"name","type":"string"},{"internalType":"uint256","name":"budget","type":"uint256"},{"internalType":"uint256","name":"voteCount","type":"uint256"}],"stateMutability":"view","type":"function"},{"inputs":[],"name":"getCandidate","outputs":[{"components":[{"internalType":"uint256","name":"candidateId","type":"uint256"},{"internalType":"string","name":"name","type":"string"},{"internalType":"uint256","name":"budget","type":"uint256"},{"internalType":"uint256","name":"voteCount","type":"uint256"}],"internalType":"struct Voting.Candidate[]","name":"","type":"tuple[]"}],"stateMutability":"view","type":"function"},{"inputs":[],"name":"getCandidateNumber","outputs":[{"internalType":"uint256","name":"","type":"uint256"}],"stateMutability":"view","type":"function"},{"inputs":[],"name":"state","outputs":[{"internalType":"enum Voting.State","name":"","type":"uint8"}],"stateMutability":"view","type":"function"},{"inputs":[{"internalType":"uint256","name":"candidateId","type":"uint256"}],"name":"vote","outputs":[],"stateMutability":"nonpayable","type":"function"},{"inputs":[{"internalType":"address","name":"","type":"address"}],"name":"votetest","outputs":[{"internalType":"bool","name":"","type":"bool"}],"stateMutability":"view","type":"function"},{"inputs":[],"name":"winner","outputs":[{"internalType":"uint256","name":"candidateId","type":"uint256"},{"internalType":"string","name":"name","type":"string"},{"internalType":"uint256","name":"budget","type":"uint256"},{"internalType":"uint256","name":"voteCount","type":"uint256"}],"stateMutability":"view","type":"function"},{"inputs":[],"name":"winningProposal","outputs":[{"internalType":"uint256","name":"winningProposal_","type":"uint256"}],"stateMutability":"view","type":"function"}],"evm":{"bytecode":{"linkReferences":{},"object":"60806040523480156200001157600080fd5b506000808190555060006001819055506000600560006101000a81548160ff021916908360028111156200004a576200004962000138565b5b02179055506000600190505b600381116200013157600a60405180608001604052808381526020016040518060400160405280600481526020017f54657374000000000000000000000000000000000000000000000000000000008152508152602001614e20815260200160008152509080600181540180825580915050600190039060005260206000209060040201600090919091909150600082015181600001556020820151816001019081620001049190620003e1565b506040820151816002015560608201518160030155505080806200012890620004f7565b91505062000056565b5062000544565b7f4e487b7100000000000000000000000000000000000000000000000000000000600052602160045260246000fd5b600081519050919050565b7f4e487b7100000000000000000000000000000000000000000000000000000000600052604160045260246000fd5b7f4e487b7100000000000000000000000000000000000000000000000000000000600052602260045260246000fd5b60006002820490506001821680620001e957607f821691505b602082108103620001ff57620001fe620001a1565b5b50919050565b60008190508160005260206000209050919050565b60006020601f8301049050919050565b600082821b905092915050565b600060088302620002697fffffffffffffffffffffffffffffffffffffffffffffffffffffffffffffffff826200022a565b6200027586836200022a565b95508019841693508086168417925050509392505050565b6000819050919050565b6000819050919050565b6000620002c2620002bc620002b6846200028d565b62000297565b6200028d565b9050919050565b6000819050919050565b620002de83620002a1565b620002f6620002ed82620002c9565b84845462000237565b825550505050565b600090565b6200030d620002fe565b6200031a818484620002d3565b505050565b5b8181101562000342576200033660008262000303565b60018101905062000320565b5050565b601f82111562000391576200035b8162000205565b62000366846200021a565b8101602085101562000376578190505b6200038e62000385856200021a565b8301826200031f565b50505b505050565b600082821c905092915050565b6000620003b66000198460080262000396565b1980831691505092915050565b6000620003d18383620003a3565b9150826002028217905092915050565b620003ec8262000167565b67ffffffffffffffff81111562000408576200040762000172565b5b620004148254620001d0565b6200042182828562000346565b600060209050601f83116001811462000459576000841562000444578287015190505b620004508582620003c3565b865550620004c0565b601f198416620004698662000205565b60005b8281101562000493578489015182556001820191506020850194506020810190506200046c565b86831015620004b35784890151620004af601f891682620003a3565b8355505b6001600288020188555050505b505050505050565b7f4e487b7100000000000000000000000000000000000000000000000000000000600052601160045260246000fd5b600062000504826200028d565b91507fffffffffffffffffffffffffffffffffffffffffffffffffffffffffffffffff8203620005395762000538620004c8565b5b600182019050919050565b61121880620005546000396000f3fe608060405234801561001057600080fd5b506004361061009e5760003560e01c806370218b851161006657806370218b851461015e578063bf4c988e1461017c578063c19d93fb146101ac578063dfbf53ae146101ca578063e23cec7b146101eb5761009e565b80630121b93f146100a3578063364dff25146100bf5780635d547488146100dd578063609ff1bd1461010d5780636247e5321461012b575b600080fd5b6100bd60048036038101906100b89190610873565b610207565b005b6100c761027a565b6040516100d491906108af565b60405180910390f35b6100f760048036038101906100f29190610928565b610283565b6040516101049190610970565b60405180910390f35b6101156102a3565b60405161012291906108af565b60405180910390f35b61014560048036038101906101409190610873565b61032b565b6040516101559493929190610a1b565b60405180910390f35b6101666103e3565b6040516101739190610be5565b60405180910390f35b61019660048036038101906101919190610928565b6104f2565b6040516101a391906108af565b60405180910390f35b6101b461050a565b6040516101c19190610c7e565b60405180910390f35b6101d261051d565b6040516101e29493929190610a1b565b60405180910390f35b61020560048036038101906102009190610dce565b6105c3565b005b600180600281111561021c5761021b610c07565b5b600560009054906101000a900460ff16600281111561023e5761023d610c07565b5b1461024857600080fd5b600160026000848152602001908152602001600020600301600082825461026f9190610e59565b925050819055505050565b60008054905090565b60046020528060005260406000206000915054906101000a900460ff1681565b6000806000905060005b600a805490508110156103265781600a82815481106102cf576102ce610e8d565b5b906000526020600020906004020160030154111561031357600a81815481106102fb576102fa610e8d565b5b90600052602060002090600402016003015491508092505b808061031e90610ebc565b9150506102ad565b505090565b600260205280600052604060002060009150905080600001549080600101805461035490610f33565b80601f016020809104026020016040519081016040528092919081815260200182805461038090610f33565b80156103cd5780601f106103a2576101008083540402835291602001916103cd565b820191906000526020600020905b8154815290600101906020018083116103b057829003601f168201915b5050505050908060020154908060030154905084565b6060600a805480602002602001604051908101604052809291908181526020016000905b828210156104e957838290600052602060002090600402016040518060800160405290816000820154815260200160018201805461044490610f33565b80601f016020809104026020016040519081016040528092919081815260200182805461047090610f33565b80156104bd5780601f10610492576101008083540402835291602001916104bd565b820191906000526020600020905b8154815290600101906020018083116104a057829003601f168201915b505050505081526020016002820154815260200160038201548152505081526020019060010190610407565b50505050905090565b60036020528060005260406000206000915090505481565b600560009054906101000a900460ff1681565b600680600001549080600101805461053490610f33565b80601f016020809104026020016040519081016040528092919081815260200182805461056090610f33565b80156105ad5780601f10610582576101008083540402835291602001916105ad565b820191906000526020600020905b81548152906001019060200180831161059057829003601f168201915b5050505050908060020154908060030154905084565b6001600360003373ffffffffffffffffffffffffffffffffffffffff1673ffffffffffffffffffffffffffffffffffffffff168152602001908152602001600020541061060f57600080fd5b600080600281111561062457610623610c07565b5b600560009054906101000a900460ff16600281111561064657610645610c07565b5b1461065057600080fd5b60056000541061065f57600080fd5b600060405180608001604052806000548152602001858152602001848152602001600081525090508060026000805481526020019081526020016000206000820151816000015560208201518160010190816106bb9190611110565b506040820151816002015560608201518160030155905050600a81908060018154018082558091505060019003906000526020600020906004020160009091909190915060008201518160000155602082015181600101908161071e9190611110565b506040820151816002015560608201518160030155505060008081548092919061074790610ebc565b9190505550600360003373ffffffffffffffffffffffffffffffffffffffff1673ffffffffffffffffffffffffffffffffffffffff168152602001908152602001600020600081548092919061079c90610ebc565b91905055506005600054106107b4576107b36107ba565b5b50505050565b60008060028111156107cf576107ce610c07565b5b600560009054906101000a900460ff1660028111156107f1576107f0610c07565b5b146107fb57600080fd5b6001600560006101000a81548160ff0219169083600281111561082157610820610c07565b5b021790555050565b6000604051905090565b600080fd5b600080fd5b6000819050919050565b6108508161083d565b811461085b57600080fd5b50565b60008135905061086d81610847565b92915050565b60006020828403121561088957610888610833565b5b60006108978482850161085e565b91505092915050565b6108a98161083d565b82525050565b60006020820190506108c460008301846108a0565b92915050565b600073ffffffffffffffffffffffffffffffffffffffff82169050919050565b60006108f5826108ca565b9050919050565b610905816108ea565b811461091057600080fd5b50565b600081359050610922816108fc565b92915050565b60006020828403121561093e5761093d610833565b5b600061094c84828501610913565b91505092915050565b60008115159050919050565b61096a81610955565b82525050565b60006020820190506109856000830184610961565b92915050565b600081519050919050565b600082825260208201905092915050565b60005b838110156109c55780820151818401526020810190506109aa565b60008484015250505050565b6000601f19601f8301169050919050565b60006109ed8261098b565b6109f78185610996565b9350610a078185602086016109a7565b610a10816109d1565b840191505092915050565b6000608082019050610a3060008301876108a0565b8181036020830152610a4281866109e2565b9050610a5160408301856108a0565b610a5e60608301846108a0565b95945050505050565b600081519050919050565b600082825260208201905092915050565b6000819050602082019050919050565b610a9c8161083d565b82525050565b600082825260208201905092915050565b6000610abe8261098b565b610ac88185610aa2565b9350610ad88185602086016109a7565b610ae1816109d1565b840191505092915050565b6000608083016000830151610b046000860182610a93565b5060208301518482036020860152610b1c8282610ab3565b9150506040830151610b316040860182610a93565b506060830151610b446060860182610a93565b508091505092915050565b6000610b5b8383610aec565b905092915050565b6000602082019050919050565b6000610b7b82610a67565b610b858185610a72565b935083602082028501610b9785610a83565b8060005b85811015610bd35784840389528151610bb48582610b4f565b9450610bbf83610b63565b925060208a01995050600181019050610b9b565b50829750879550505050505092915050565b60006020820190508181036000830152610bff8184610b70565b905092915050565b7f4e487b7100000000000000000000000000000000000000000000000000000000600052602160045260246000fd5b60038110610c4757610c46610c07565b5b50565b6000819050610c5882610c36565b919050565b6000610c6882610c4a565b9050919050565b610c7881610c5d565b82525050565b6000602082019050610c936000830184610c6f565b92915050565b600080fd5b600080fd5b7f4e487b7100000000000000000000000000000000000000000000000000000000600052604160045260246000fd5b610cdb826109d1565b810181811067ffffffffffffffff82111715610cfa57610cf9610ca3565b5b80604052505050565b6000610d0d610829565b9050610d198282610cd2565b919050565b600067ffffffffffffffff821115610d3957610d38610ca3565b5b610d42826109d1565b9050602081019050919050565b82818337600083830152505050565b6000610d71610d6c84610d1e565b610d03565b905082815260208101848484011115610d8d57610d8c610c9e565b5b610d98848285610d4f565b509392505050565b600082601f830112610db557610db4610c99565b5b8135610dc5848260208601610d5e565b91505092915050565b60008060408385031215610de557610de4610833565b5b600083013567ffffffffffffffff811115610e0357610e02610838565b5b610e0f85828601610da0565b9250506020610e208582860161085e565b9150509250929050565b7f4e487b7100000000000000000000000000000000000000000000000000000000600052601160045260246000fd5b6000610e648261083d565b9150610e6f8361083d565b9250828201905080821115610e8757610e86610e2a565b5b92915050565b7f4e487b7100000000000000000000000000000000000000000000000000000000600052603260045260246000fd5b6000610ec78261083d565b91507fffffffffffffffffffffffffffffffffffffffffffffffffffffffffffffffff8203610ef957610ef8610e2a565b5b600182019050919050565b7f4e487b7100000000000000000000000000000000000000000000000000000000600052602260045260246000fd5b60006002820490506001821680610f4b57607f821691505b602082108103610f5e57610f5d610f04565b5b50919050565b60008190508160005260206000209050919050565b60006020601f8301049050919050565b600082821b905092915050565b600060088302610fc67fffffffffffffffffffffffffffffffffffffffffffffffffffffffffffffffff82610f89565b610fd08683610f89565b95508019841693508086168417925050509392505050565b6000819050919050565b600061100d6110086110038461083d565b610fe8565b61083d565b9050919050565b6000819050919050565b61102783610ff2565b61103b61103382611014565b848454610f96565b825550505050565b600090565b611050611043565b61105b81848461101e565b505050565b5b8181101561107f57611074600082611048565b600181019050611061565b5050565b601f8211156110c45761109581610f64565b61109e84610f79565b810160208510156110ad578190505b6110c16110b985610f79565b830182611060565b50505b505050565b600082821c905092915050565b60006110e7600019846008026110c9565b1980831691505092915050565b600061110083836110d6565b9150826002028217905092915050565b6111198261098b565b67ffffffffffffffff81111561113257611131610ca3565b5b61113c8254610f33565b611147828285611083565b600060209050601f83116001811461117a5760008415611168578287015190505b61117285826110f4565b8655506111da565b601f19841661118886610f64565b60005b828110156111b05784890151825560018201915060208501945060208101905061118b565b868310156111cd57848901516111c9601f8916826110d6565b8355505b6001600288020188555050505b50505050505056fea2646970667358221220ae1cb8c96882c2d0d513ba091052ca4923470e53de35c85c07da08d97dc95e0a64736f6c63430008110033","opcodes":"PUSH1 0x80 PUSH1 0x40 MSTORE CALLVALUE DUP1 ISZERO PUSH3 0x11 JUMPI PUSH1 0x0 DUP1 REVERT JUMPDEST POP PUSH1 0x0 DUP1 DUP2 SWAP1 SSTORE POP PUSH1 0x0 PUSH1 0x1 DUP2 SWAP1 SSTORE POP PUSH1 0x0 PUSH1 0x5 PUSH1 0x0 PUSH2 0x100 EXP DUP2 SLOAD DUP2 PUSH1 0xFF MUL NOT AND SWAP1 DUP4 PUSH1 0x2 DUP2 GT ISZERO PUSH3 0x4A JUMPI PUSH3 0x49 PUSH3 0x138 JUMP JUMPDEST JUMPDEST MUL OR SWAP1 SSTORE POP PUSH1 0x0 PUSH1 0x1 SWAP1 POP JUMPDEST PUSH1 0x3 DUP2 GT PUSH3 0x131 JUMPI PUSH1 0xA PUSH1 0x40 MLOAD DUP1 PUSH1 0x80 ADD PUSH1 0x40 MSTORE DUP1 DUP4 DUP2 MSTORE PUSH1 0x20 ADD PUSH1 0x40 MLOAD DUP1 PUSH1 0x40 ADD PUSH1 0x40 MSTORE DUP1 PUSH1 0x4 DUP2 MSTORE PUSH1 0x20 ADD PUSH32 0x5465737400000000000000000000000000000000000000000000000000000000 DUP2 MSTORE POP DUP2 MSTORE PUSH1 0x20 ADD PUSH2 0x4E20 DUP2 MSTORE PUSH1 0x20 ADD PUSH1 0x0 DUP2 MSTORE POP SWAP1 DUP1 PUSH1 0x1 DUP2 SLOAD ADD DUP1 DUP3 SSTORE DUP1 SWAP2 POP POP PUSH1 0x1 SWAP1 SUB SWAP1 PUSH1 0x0 MSTORE PUSH1 0x20 PUSH1 0x0 KECCAK256 SWAP1 PUSH1 0x4 MUL ADD PUSH1 0x0 SWAP1 SWAP2 SWAP1 SWAP2 SWAP1 SWAP2 POP PUSH1 0x0 DUP3 ADD MLOAD DUP2 PUSH1 0x0 ADD SSTORE PUSH1 0x20 DUP3 ADD MLOAD DUP2 PUSH1 0x1 ADD SWAP1 DUP2 PUSH3 0x104 SWAP2 SWAP1 PUSH3 0x3E1 JUMP JUMPDEST POP PUSH1 0x40 DUP3 ADD MLOAD DUP2 PUSH1 0x2 ADD SSTORE PUSH1 0x60 DUP3 ADD MLOAD DUP2 PUSH1 0x3 ADD SSTORE POP POP DUP1 DUP1 PUSH3 0x128 SWAP1 PUSH3 0x4F7 JUMP JUMPDEST SWAP2 POP POP PUSH3 0x56 JUMP JUMPDEST POP PUSH3 0x544 JUMP JUMPDEST PUSH32 0x4E487B7100000000000000000000000000000000000000000000000000000000 PUSH1 0x0 MSTORE PUSH1 0x21 PUSH1 0x4 MSTORE PUSH1 0x24 PUSH1 0x0 REVERT JUMPDEST PUSH1 0x0 DUP2 MLOAD SWAP1 POP SWAP2 SWAP1 POP JUMP JUMPDEST PUSH32 0x4E487B7100000000000000000000000000000000000000000000000000000000 PUSH1 0x0 MSTORE PUSH1 0x41 PUSH1 0x4 MSTORE PUSH1 0x24 PUSH1 0x0 REVERT JUMPDEST PUSH32 0x4E487B7100000000000000000000000000000000000000000000000000000000 PUSH1 0x0 MSTORE PUSH1 0x22 PUSH1 0x4 MSTORE PUSH1 0x24 PUSH1 0x0 REVERT JUMPDEST PUSH1 0x0 PUSH1 0x2 DUP3 DIV SWAP1 POP PUSH1 0x1 DUP3 AND DUP1 PUSH3 0x1E9 JUMPI PUSH1 0x7F DUP3 AND SWAP2 POP JUMPDEST PUSH1 0x20 DUP3 LT DUP2 SUB PUSH3 0x1FF JUMPI PUSH3 0x1FE PUSH3 0x1A1 JUMP JUMPDEST JUMPDEST POP SWAP2 SWAP1 POP JUMP JUMPDEST PUSH1 0x0 DUP2 SWAP1 POP DUP2 PUSH1 0x0 MSTORE PUSH1 0x20 PUSH1 0x0 KECCAK256 SWAP1 POP SWAP2 SWAP1 POP JUMP JUMPDEST PUSH1 0x0 PUSH1 0x20 PUSH1 0x1F DUP4 ADD DIV SWAP1 POP SWAP2 SWAP1 POP JUMP JUMPDEST PUSH1 0x0 DUP3 DUP3 SHL SWAP1 POP SWAP3 SWAP2 POP POP JUMP JUMPDEST PUSH1 0x0 PUSH1 0x8 DUP4 MUL PUSH3 0x269 PUSH32 0xFFFFFFFFFFFFFFFFFFFFFFFFFFFFFFFFFFFFFFFFFFFFFFFFFFFFFFFFFFFFFFFF DUP3 PUSH3 0x22A JUMP JUMPDEST PUSH3 0x275 DUP7 DUP4 PUSH3 0x22A JUMP JUMPDEST SWAP6 POP DUP1 NOT DUP5 AND SWAP4 POP DUP1 DUP7 AND DUP5 OR SWAP3 POP POP POP SWAP4 SWAP3 POP POP POP JUMP JUMPDEST PUSH1 0x0 DUP2 SWAP1 POP SWAP2 SWAP1 POP JUMP JUMPDEST PUSH1 0x0 DUP2 SWAP1 POP SWAP2 SWAP1 POP JUMP JUMPDEST PUSH1 0x0 PUSH3 0x2C2 PUSH3 0x2BC PUSH3 0x2B6 DUP5 PUSH3 0x28D JUMP JUMPDEST PUSH3 0x297 JUMP JUMPDEST PUSH3 0x28D JUMP JUMPDEST SWAP1 POP SWAP2 SWAP1 POP JUMP JUMPDEST PUSH1 0x0 DUP2 SWAP1 POP SWAP2 SWAP1 POP JUMP JUMPDEST PUSH3 0x2DE DUP4 PUSH3 0x2A1 JUMP JUMPDEST PUSH3 0x2F6 PUSH3 0x2ED DUP3 PUSH3 0x2C9 JUMP JUMPDEST DUP5 DUP5 SLOAD PUSH3 0x237 JUMP JUMPDEST DUP3 SSTORE POP POP POP POP JUMP JUMPDEST PUSH1 0x0 SWAP1 JUMP JUMPDEST PUSH3 0x30D PUSH3 0x2FE JUMP JUMPDEST PUSH3 0x31A DUP2 DUP5 DUP5 PUSH3 0x2D3 JUMP JUMPDEST POP POP POP JUMP JUMPDEST JUMPDEST DUP2 DUP2 LT ISZERO PUSH3 0x342 JUMPI PUSH3 0x336 PUSH1 0x0 DUP3 PUSH3 0x303 JUMP JUMPDEST PUSH1 0x1 DUP2 ADD SWAP1 POP PUSH3 0x320 JUMP JUMPDEST POP POP JUMP JUMPDEST PUSH1 0x1F DUP3 GT ISZERO PUSH3 0x391 JUMPI PUSH3 0x35B DUP2 PUSH3 0x205 JUMP JUMPDEST PUSH3 0x366 DUP5 PUSH3 0x21A JUMP JUMPDEST DUP2 ADD PUSH1 0x20 DUP6 LT ISZERO PUSH3 0x376 JUMPI DUP2 SWAP1 POP JUMPDEST PUSH3 0x38E PUSH3 0x385 DUP6 PUSH3 0x21A JUMP JUMPDEST DUP4 ADD DUP3 PUSH3 0x31F JUMP JUMPDEST POP POP JUMPDEST POP POP POP JUMP JUMPDEST PUSH1 0x0 DUP3 DUP3 SHR SWAP1 POP SWAP3 SWAP2 POP POP JUMP JUMPDEST PUSH1 0x0 PUSH3 0x3B6 PUSH1 0x0 NOT DUP5 PUSH1 0x8 MUL PUSH3 0x396 JUMP JUMPDEST NOT DUP1 DUP4 AND SWAP2 POP POP SWAP3 SWAP2 POP POP JUMP JUMPDEST PUSH1 0x0 PUSH3 0x3D1 DUP4 DUP4 PUSH3 0x3A3 JUMP JUMPDEST SWAP2 POP DUP3 PUSH1 0x2 MUL DUP3 OR SWAP1 POP SWAP3 SWAP2 POP POP JUMP JUMPDEST PUSH3 0x3EC DUP3 PUSH3 0x167 JUMP JUMPDEST PUSH8 0xFFFFFFFFFFFFFFFF DUP2 GT ISZERO PUSH3 0x408 JUMPI PUSH3 0x407 PUSH3 0x172 JUMP JUMPDEST JUMPDEST PUSH3 0x414 DUP3 SLOAD PUSH3 0x1D0 JUMP JUMPDEST PUSH3 0x421 DUP3 DUP3 DUP6 PUSH3 0x346 JUMP JUMPDEST PUSH1 0x0 PUSH1 0x20 SWAP1 POP PUSH1 0x1F DUP4 GT PUSH1 0x1 DUP2 EQ PUSH3 0x459 JUMPI PUSH1 0x0 DUP5 ISZERO PUSH3 0x444 JUMPI DUP3 DUP8 ADD MLOAD SWAP1 POP JUMPDEST PUSH3 0x450 DUP6 DUP3 PUSH3 0x3C3 JUMP JUMPDEST DUP7 SSTORE POP PUSH3 0x4C0 JUMP JUMPDEST PUSH1 0x1F NOT DUP5 AND PUSH3 0x469 DUP7 PUSH3 0x205 JUMP JUMPDEST PUSH1 0x0 JUMPDEST DUP3 DUP2 LT ISZERO PUSH3 0x493 JUMPI DUP5 DUP10 ADD MLOAD DUP3 SSTORE PUSH1 0x1 DUP3 ADD SWAP2 POP PUSH1 0x20 DUP6 ADD SWAP5 POP PUSH1 0x20 DUP2 ADD SWAP1 POP PUSH3 0x46C JUMP JUMPDEST DUP7 DUP4 LT ISZERO PUSH3 0x4B3 JUMPI DUP5 DUP10 ADD MLOAD PUSH3 0x4AF PUSH1 0x1F DUP10 AND DUP3 PUSH3 0x3A3 JUMP JUMPDEST DUP4 SSTORE POP JUMPDEST PUSH1 0x1 PUSH1 0x2 DUP9 MUL ADD DUP9 SSTORE POP POP POP JUMPDEST POP POP POP POP POP POP JUMP JUMPDEST PUSH32 0x4E487B7100000000000000000000000000000000000000000000000000000000 PUSH1 0x0 MSTORE PUSH1 0x11 PUSH1 0x4 MSTORE PUSH1 0x24 PUSH1 0x0 REVERT JUMPDEST PUSH1 0x0 PUSH3 0x504 DUP3 PUSH3 0x28D JUMP JUMPDEST SWAP2 POP PUSH32 0xFFFFFFFFFFFFFFFFFFFFFFFFFFFFFFFFFFFFFFFFFFFFFFFFFFFFFFFFFFFFFFFF DUP3 SUB PUSH3 0x539 JUMPI PUSH3 0x538 PUSH3 0x4C8 JUMP JUMPDEST JUMPDEST PUSH1 0x1 DUP3 ADD SWAP1 POP SWAP2 SWAP1 POP JUMP JUMPDEST PUSH2 0x1218 DUP1 PUSH3 0x554 PUSH1 0x0 CODECOPY PUSH1 0x0 RETURN INVALID PUSH1 0x80 PUSH1 0x40 MSTORE CALLVALUE DUP1 ISZERO PUSH2 0x10 JUMPI PUSH1 0x0 DUP1 REVERT JUMPDEST POP PUSH1 0x4 CALLDATASIZE LT PUSH2 0x9E JUMPI PUSH1 0x0 CALLDATALOAD PUSH1 0xE0 SHR DUP1 PUSH4 0x70218B85 GT PUSH2 0x66 JUMPI DUP1 PUSH4 0x70218B85 EQ PUSH2 0x15E JUMPI DUP1 PUSH4 0xBF4C988E EQ PUSH2 0x17C JUMPI DUP1 PUSH4 0xC19D93FB EQ PUSH2 0x1AC JUMPI DUP1 PUSH4 0xDFBF53AE EQ PUSH2 0x1CA JUMPI DUP1 PUSH4 0xE23CEC7B EQ PUSH2 0x1EB JUMPI PUSH2 0x9E JUMP JUMPDEST DUP1 PUSH4 0x121B93F EQ PUSH2 0xA3 JUMPI DUP1 PUSH4 0x364DFF25 EQ PUSH2 0xBF JUMPI DUP1 PUSH4 0x5D547488 EQ PUSH2 0xDD JUMPI DUP1 PUSH4 0x609FF1BD EQ PUSH2 0x10D JUMPI DUP1 PUSH4 0x6247E532 EQ PUSH2 0x12B JUMPI JUMPDEST PUSH1 0x0 DUP1 REVERT JUMPDEST PUSH2 0xBD PUSH1 0x4 DUP1 CALLDATASIZE SUB DUP2 ADD SWAP1 PUSH2 0xB8 SWAP2 SWAP1 PUSH2 0x873 JUMP JUMPDEST PUSH2 0x207 JUMP JUMPDEST STOP JUMPDEST PUSH2 0xC7 PUSH2 0x27A JUMP JUMPDEST PUSH1 0x40 MLOAD PUSH2 0xD4 SWAP2 SWAP1 PUSH2 0x8AF JUMP JUMPDEST PUSH1 0x40 MLOAD DUP1 SWAP2 SUB SWAP1 RETURN JUMPDEST PUSH2 0xF7 PUSH1 0x4 DUP1 CALLDATASIZE SUB DUP2 ADD SWAP1 PUSH2 0xF2 SWAP2 SWAP1 PUSH2 0x928 JUMP JUMPDEST PUSH2 0x283 JUMP JUMPDEST PUSH1 0x40 MLOAD PUSH2 0x104 SWAP2 SWAP1 PUSH2 0x970 JUMP JUMPDEST PUSH1 0x40 MLOAD DUP1 SWAP2 SUB SWAP1 RETURN JUMPDEST PUSH2 0x115 PUSH2 0x2A3 JUMP JUMPDEST PUSH1 0x40 MLOAD PUSH2 0x122 SWAP2 SWAP1 PUSH2 0x8AF JUMP JUMPDEST PUSH1 0x40 MLOAD DUP1 SWAP2 SUB SWAP1 RETURN JUMPDEST PUSH2 0x145 PUSH1 0x4 DUP1 CALLDATASIZE SUB DUP2 ADD SWAP1 PUSH2 0x140 SWAP2 SWAP1 PUSH2 0x873 JUMP JUMPDEST PUSH2 0x32B JUMP JUMPDEST PUSH1 0x40 MLOAD PUSH2 0x155 SWAP5 SWAP4 SWAP3 SWAP2 SWAP1 PUSH2 0xA1B JUMP JUMPDEST PUSH1 0x40 MLOAD DUP1 SWAP2 SUB SWAP1 RETURN JUMPDEST PUSH2 0x166 PUSH2 0x3E3 JUMP JUMPDEST PUSH1 0x40 MLOAD PUSH2 0x173 SWAP2 SWAP1 PUSH2 0xBE5 JUMP JUMPDEST PUSH1 0x40 MLOAD DUP1 SWAP2 SUB SWAP1 RETURN JUMPDEST PUSH2 0x196 PUSH1 0x4 DUP1 CALLDATASIZE SUB DUP2 ADD SWAP1 PUSH2 0x191 SWAP2 SWAP1 PUSH2 0x928 JUMP JUMPDEST PUSH2 0x4F2 JUMP JUMPDEST PUSH1 0x40 MLOAD PUSH2 0x1A3 SWAP2 SWAP1 PUSH2 0x8AF JUMP JUMPDEST PUSH1 0x40 MLOAD DUP1 SWAP2 SUB SWAP1 RETURN JUMPDEST PUSH2 0x1B4 PUSH2 0x50A JUMP JUMPDEST PUSH1 0x40 MLOAD PUSH2 0x1C1 SWAP2 SWAP1 PUSH2 0xC7E JUMP JUMPDEST PUSH1 0x40 MLOAD DUP1 SWAP2 SUB SWAP1 RETURN JUMPDEST PUSH2 0x1D2 PUSH2 0x51D JUMP JUMPDEST PUSH1 0x40 MLOAD PUSH2 0x1E2 SWAP5 SWAP4 SWAP3 SWAP2 SWAP1 PUSH2 0xA1B JUMP JUMPDEST PUSH1 0x40 MLOAD DUP1 SWAP2 SUB SWAP1 RETURN JUMPDEST PUSH2 0x205 PUSH1 0x4 DUP1 CALLDATASIZE SUB DUP2 ADD SWAP1 PUSH2 0x200 SWAP2 SWAP1 PUSH2 0xDCE JUMP JUMPDEST PUSH2 0x5C3 JUMP JUMPDEST STOP JUMPDEST PUSH1 0x1 DUP1 PUSH1 0x2 DUP2 GT ISZERO PUSH2 0x21C JUMPI PUSH2 0x21B PUSH2 0xC07 JUMP JUMPDEST JUMPDEST PUSH1 0x5 PUSH1 0x0 SWAP1 SLOAD SWAP1 PUSH2 0x100 EXP SWAP1 DIV PUSH1 0xFF AND PUSH1 0x2 DUP2 GT ISZERO PUSH2 0x23E JUMPI PUSH2 0x23D PUSH2 0xC07 JUMP JUMPDEST JUMPDEST EQ PUSH2 0x248 JUMPI PUSH1 0x0 DUP1 REVERT JUMPDEST PUSH1 0x1 PUSH1 0x2 PUSH1 0x0 DUP5 DUP2 MSTORE PUSH1 0x20 ADD SWAP1 DUP2 MSTORE PUSH1 0x20 ADD PUSH1 0x0 KECCAK256 PUSH1 0x3 ADD PUSH1 0x0 DUP3 DUP3 SLOAD PUSH2 0x26F SWAP2 SWAP1 PUSH2 0xE59 JUMP JUMPDEST SWAP3 POP POP DUP2 SWAP1 SSTORE POP POP POP JUMP JUMPDEST PUSH1 0x0 DUP1 SLOAD SWAP1 POP SWAP1 JUMP JUMPDEST PUSH1 0x4 PUSH1 0x20 MSTORE DUP1 PUSH1 0x0 MSTORE PUSH1 0x40 PUSH1 0x0 KECCAK256 PUSH1 0x0 SWAP2 POP SLOAD SWAP1 PUSH2 0x100 EXP SWAP1 DIV PUSH1 0xFF AND DUP2 JUMP JUMPDEST PUSH1 0x0 DUP1 PUSH1 0x0 SWAP1 POP PUSH1 0x0 JUMPDEST PUSH1 0xA DUP1 SLOAD SWAP1 POP DUP2 LT ISZERO PUSH2 0x326 JUMPI DUP2 PUSH1 0xA DUP3 DUP2 SLOAD DUP2 LT PUSH2 0x2CF JUMPI PUSH2 0x2CE PUSH2 0xE8D JUMP JUMPDEST JUMPDEST SWAP1 PUSH1 0x0 MSTORE PUSH1 0x20 PUSH1 0x0 KECCAK256 SWAP1 PUSH1 0x4 MUL ADD PUSH1 0x3 ADD SLOAD GT ISZERO PUSH2 0x313 JUMPI PUSH1 0xA DUP2 DUP2 SLOAD DUP2 LT PUSH2 0x2FB JUMPI PUSH2 0x2FA PUSH2 0xE8D JUMP JUMPDEST JUMPDEST SWAP1 PUSH1 0x0 MSTORE PUSH1 0x20 PUSH1 0x0 KECCAK256 SWAP1 PUSH1 0x4 MUL ADD PUSH1 0x3 ADD SLOAD SWAP2 POP DUP1 SWAP3 POP JUMPDEST DUP1 DUP1 PUSH2 0x31E SWAP1 PUSH2 0xEBC JUMP JUMPDEST SWAP2 POP POP PUSH2 0x2AD JUMP JUMPDEST POP POP SWAP1 JUMP JUMPDEST PUSH1 0x2 PUSH1 0x20 MSTORE DUP1 PUSH1 0x0 MSTORE PUSH1 0x40 PUSH1 0x0 KECCAK256 PUSH1 0x0 SWAP2 POP SWAP1 POP DUP1 PUSH1 0x0 ADD SLOAD SWAP1 DUP1 PUSH1 0x1 ADD DUP1 SLOAD PUSH2 0x354 SWAP1 PUSH2 0xF33 JUMP JUMPDEST DUP1 PUSH1 0x1F ADD PUSH1 0x20 DUP1 SWAP2 DIV MUL PUSH1 0x20 ADD PUSH1 0x40 MLOAD SWAP1 DUP2 ADD PUSH1 0x40 MSTORE DUP1 SWAP3 SWAP2 SWAP1 DUP2 DUP2 MSTORE PUSH1 0x20 ADD DUP3 DUP1 SLOAD PUSH2 0x380 SWAP1 PUSH2 0xF33 JUMP JUMPDEST DUP1 ISZERO PUSH2 0x3CD JUMPI DUP1 PUSH1 0x1F LT PUSH2 0x3A2 JUMPI PUSH2 0x100 DUP1 DUP4 SLOAD DIV MUL DUP4 MSTORE SWAP2 PUSH1 0x20 ADD SWAP2 PUSH2 0x3CD JUMP JUMPDEST DUP3 ADD SWAP2 SWAP1 PUSH1 0x0 MSTORE PUSH1 0x20 PUSH1 0x0 KECCAK256 SWAP1 JUMPDEST DUP2 SLOAD DUP2 MSTORE SWAP1 PUSH1 0x1 ADD SWAP1 PUSH1 0x20 ADD DUP1 DUP4 GT PUSH2 0x3B0 JUMPI DUP3 SWAP1 SUB PUSH1 0x1F AND DUP3 ADD SWAP2 JUMPDEST POP POP POP POP POP SWAP1 DUP1 PUSH1 0x2 ADD SLOAD SWAP1 DUP1 PUSH1 0x3 ADD SLOAD SWAP1 POP DUP5 JUMP JUMPDEST PUSH1 0x60 PUSH1 0xA DUP1 SLOAD DUP1 PUSH1 0x20 MUL PUSH1 0x20 ADD PUSH1 0x40 MLOAD SWAP1 DUP2 ADD PUSH1 0x40 MSTORE DUP1 SWAP3 SWAP2 SWAP1 DUP2 DUP2 MSTORE PUSH1 0x20 ADD PUSH1 0x0 SWAP1 JUMPDEST DUP3 DUP3 LT ISZERO PUSH2 0x4E9 JUMPI DUP4 DUP3 SWAP1 PUSH1 0x0 MSTORE PUSH1 0x20 PUSH1 0x0 KECCAK256 SWAP1 PUSH1 0x4 MUL ADD PUSH1 0x40 MLOAD DUP1 PUSH1 0x80 ADD PUSH1 0x40 MSTORE SWAP1 DUP2 PUSH1 0x0 DUP3 ADD SLOAD DUP2 MSTORE PUSH1 0x20 ADD PUSH1 0x1 DUP3 ADD DUP1 SLOAD PUSH2 0x444 SWAP1 PUSH2 0xF33 JUMP JUMPDEST DUP1 PUSH1 0x1F ADD PUSH1 0x20 DUP1 SWAP2 DIV MUL PUSH1 0x20 ADD PUSH1 0x40 MLOAD SWAP1 DUP2 ADD PUSH1 0x40 MSTORE DUP1 SWAP3 SWAP2 SWAP1 DUP2 DUP2 MSTORE PUSH1 0x20 ADD DUP3 DUP1 SLOAD PUSH2 0x470 SWAP1 PUSH2 0xF33 JUMP JUMPDEST DUP1 ISZERO PUSH2 0x4BD JUMPI DUP1 PUSH1 0x1F LT PUSH2 0x492 JUMPI PUSH2 0x100 DUP1 DUP4 SLOAD DIV MUL DUP4 MSTORE SWAP2 PUSH1 0x20 ADD SWAP2 PUSH2 0x4BD JUMP JUMPDEST DUP3 ADD SWAP2 SWAP1 PUSH1 0x0 MSTORE PUSH1 0x20 PUSH1 0x0 KECCAK256 SWAP1 JUMPDEST DUP2 SLOAD DUP2 MSTORE SWAP1 PUSH1 0x1 ADD SWAP1 PUSH1 0x20 ADD DUP1 DUP4 GT PUSH2 0x4A0 JUMPI DUP3 SWAP1 SUB PUSH1 0x1F AND DUP3 ADD SWAP2 JUMPDEST POP POP POP POP POP DUP2 MSTORE PUSH1 0x20 ADD PUSH1 0x2 DUP3 ADD SLOAD DUP2 MSTORE PUSH1 0x20 ADD PUSH1 0x3 DUP3 ADD SLOAD DUP2 MSTORE POP POP DUP2 MSTORE PUSH1 0x20 ADD SWAP1 PUSH1 0x1 ADD SWAP1 PUSH2 0x407 JUMP JUMPDEST POP POP POP POP SWAP1 POP SWAP1 JUMP JUMPDEST PUSH1 0x3 PUSH1 0x20 MSTORE DUP1 PUSH1 0x0 MSTORE PUSH1 0x40 PUSH1 0x0 KECCAK256 PUSH1 0x0 SWAP2 POP SWAP1 POP SLOAD DUP2 JUMP JUMPDEST PUSH1 0x5 PUSH1 0x0 SWAP1 SLOAD SWAP1 PUSH2 0x100 EXP SWAP1 DIV PUSH1 0xFF AND DUP2 JUMP JUMPDEST PUSH1 0x6 DUP1 PUSH1 0x0 ADD SLOAD SWAP1 DUP1 PUSH1 0x1 ADD DUP1 SLOAD PUSH2 0x534 SWAP1 PUSH2 0xF33 JUMP JUMPDEST DUP1 PUSH1 0x1F ADD PUSH1 0x20 DUP1 SWAP2 DIV MUL PUSH1 0x20 ADD PUSH1 0x40 MLOAD SWAP1 DUP2 ADD PUSH1 0x40 MSTORE DUP1 SWAP3 SWAP2 SWAP1 DUP2 DUP2 MSTORE PUSH1 0x20 ADD DUP3 DUP1 SLOAD PUSH2 0x560 SWAP1 PUSH2 0xF33 JUMP JUMPDEST DUP1 ISZERO PUSH2 0x5AD JUMPI DUP1 PUSH1 0x1F LT PUSH2 0x582 JUMPI PUSH2 0x100 DUP1 DUP4 SLOAD DIV MUL DUP4 MSTORE SWAP2 PUSH1 0x20 ADD SWAP2 PUSH2 0x5AD JUMP JUMPDEST DUP3 ADD SWAP2 SWAP1 PUSH1 0x0 MSTORE PUSH1 0x20 PUSH1 0x0 KECCAK256 SWAP1 JUMPDEST DUP2 SLOAD DUP2 MSTORE SWAP1 PUSH1 0x1 ADD SWAP1 PUSH1 0x20 ADD DUP1 DUP4 GT PUSH2 0x590 JUMPI DUP3 SWAP1 SUB PUSH1 0x1F AND DUP3 ADD SWAP2 JUMPDEST POP POP POP POP POP SWAP1 DUP1 PUSH1 0x2 ADD SLOAD SWAP1 DUP1 PUSH1 0x3 ADD SLOAD SWAP1 POP DUP5 JUMP JUMPDEST PUSH1 0x1 PUSH1 0x3 PUSH1 0x0 CALLER PUSH20 0xFFFFFFFFFFFFFFFFFFFFFFFFFFFFFFFFFFFFFFFF AND PUSH20 0xFFFFFFFFFFFFFFFFFFFFFFFFFFFFFFFFFFFFFFFF AND DUP2 MSTORE PUSH1 0x20 ADD SWAP1 DUP2 MSTORE PUSH1 0x20 ADD PUSH1 0x0 KECCAK256 SLOAD LT PUSH2 0x60F JUMPI PUSH1 0x0 DUP1 REVERT JUMPDEST PUSH1 0x0 DUP1 PUSH1 0x2 DUP2 GT ISZERO PUSH2 0x624 JUMPI PUSH2 0x623 PUSH2 0xC07 JUMP JUMPDEST JUMPDEST PUSH1 0x5 PUSH1 0x0 SWAP1 SLOAD SWAP1 PUSH2 0x100 EXP SWAP1 DIV PUSH1 0xFF AND PUSH1 0x2 DUP2 GT ISZERO PUSH2 0x646 JUMPI PUSH2 0x645 PUSH2 0xC07 JUMP JUMPDEST JUMPDEST EQ PUSH2 0x650 JUMPI PUSH1 0x0 DUP1 REVERT JUMPDEST PUSH1 0x5 PUSH1 0x0 SLOAD LT PUSH2 0x65F JUMPI PUSH1 0x0 DUP1 REVERT JUMPDEST PUSH1 0x0 PUSH1 0x40 MLOAD DUP1 PUSH1 0x80 ADD PUSH1 0x40 MSTORE DUP1 PUSH1 0x0 SLOAD DUP2 MSTORE PUSH1 0x20 ADD DUP6 DUP2 MSTORE PUSH1 0x20 ADD DUP5 DUP2 MSTORE PUSH1 0x20 ADD PUSH1 0x0 DUP2 MSTORE POP SWAP1 POP DUP1 PUSH1 0x2 PUSH1 0x0 DUP1 SLOAD DUP2 MSTORE PUSH1 0x20 ADD SWAP1 DUP2 MSTORE PUSH1 0x20 ADD PUSH1 0x0 KECCAK256 PUSH1 0x0 DUP3 ADD MLOAD DUP2 PUSH1 0x0 ADD SSTORE PUSH1 0x20 DUP3 ADD MLOAD DUP2 PUSH1 0x1 ADD SWAP1 DUP2 PUSH2 0x6BB SWAP2 SWAP1 PUSH2 0x1110 JUMP JUMPDEST POP PUSH1 0x40 DUP3 ADD MLOAD DUP2 PUSH1 0x2 ADD SSTORE PUSH1 0x60 DUP3 ADD MLOAD DUP2 PUSH1 0x3 ADD SSTORE SWAP1 POP POP PUSH1 0xA DUP2 SWAP1 DUP1 PUSH1 0x1 DUP2 SLOAD ADD DUP1 DUP3 SSTORE DUP1 SWAP2 POP POP PUSH1 0x1 SWAP1 SUB SWAP1 PUSH1 0x0 MSTORE PUSH1 0x20 PUSH1 0x0 KECCAK256 SWAP1 PUSH1 0x4 MUL ADD PUSH1 0x0 SWAP1 SWAP2 SWAP1 SWAP2 SWAP1 SWAP2 POP PUSH1 0x0 DUP3 ADD MLOAD DUP2 PUSH1 0x0 ADD SSTORE PUSH1 0x20 DUP3 ADD MLOAD DUP2 PUSH1 0x1 ADD SWAP1 DUP2 PUSH2 0x71E SWAP2 SWAP1 PUSH2 0x1110 JUMP JUMPDEST POP PUSH1 0x40 DUP3 ADD MLOAD DUP2 PUSH1 0x2 ADD SSTORE PUSH1 0x60 DUP3 ADD MLOAD DUP2 PUSH1 0x3 ADD SSTORE POP POP PUSH1 0x0 DUP1 DUP2 SLOAD DUP1 SWAP3 SWAP2 SWAP1 PUSH2 0x747 SWAP1 PUSH2 0xEBC JUMP JUMPDEST SWAP2 SWAP1 POP SSTORE POP PUSH1 0x3 PUSH1 0x0 CALLER PUSH20 0xFFFFFFFFFFFFFFFFFFFFFFFFFFFFFFFFFFFFFFFF AND PUSH20 0xFFFFFFFFFFFFFFFFFFFFFFFFFFFFFFFFFFFFFFFF AND DUP2 MSTORE PUSH1 0x20 ADD SWAP1 DUP2 MSTORE PUSH1 0x20 ADD PUSH1 0x0 KECCAK256 PUSH1 0x0 DUP2 SLOAD DUP1 SWAP3 SWAP2 SWAP1 PUSH2 0x79C SWAP1 PUSH2 0xEBC JUMP JUMPDEST SWAP2 SWAP1 POP SSTORE POP PUSH1 0x5 PUSH1 0x0 SLOAD LT PUSH2 0x7B4 JUMPI PUSH2 0x7B3 PUSH2 0x7BA JUMP JUMPDEST JUMPDEST POP POP POP POP JUMP JUMPDEST PUSH1 0x0 DUP1 PUSH1 0x2 DUP2 GT ISZERO PUSH2 0x7CF JUMPI PUSH2 0x7CE PUSH2 0xC07 JUMP JUMPDEST JUMPDEST PUSH1 0x5 PUSH1 0x0 SWAP1 SLOAD SWAP1 PUSH2 0x100 EXP SWAP1 DIV PUSH1 0xFF AND PUSH1 0x2 DUP2 GT ISZERO PUSH2 0x7F1 JUMPI PUSH2 0x7F0 PUSH2 0xC07 JUMP JUMPDEST JUMPDEST EQ PUSH2 0x7FB JUMPI PUSH1 0x0 DUP1 REVERT JUMPDEST PUSH1 0x1 PUSH1 0x5 PUSH1 0x0 PUSH2 0x100 EXP DUP2 SLOAD DUP2 PUSH1 0xFF MUL NOT AND SWAP1 DUP4 PUSH1 0x2 DUP2 GT ISZERO PUSH2 0x821 JUMPI PUSH2 0x820 PUSH2 0xC07 JUMP JUMPDEST JUMPDEST MUL OR SWAP1 SSTORE POP POP JUMP JUMPDEST PUSH1 0x0 PUSH1 0x40 MLOAD SWAP1 POP SWAP1 JUMP JUMPDEST PUSH1 0x0 DUP1 REVERT JUMPDEST PUSH1 0x0 DUP1 REVERT JUMPDEST PUSH1 0x0 DUP2 SWAP1 POP SWAP2 SWAP1 POP JUMP JUMPDEST PUSH2 0x850 DUP2 PUSH2 0x83D JUMP JUMPDEST DUP2 EQ PUSH2 0x85B JUMPI PUSH1 0x0 DUP1 REVERT JUMPDEST POP JUMP JUMPDEST PUSH1 0x0 DUP2 CALLDATALOAD SWAP1 POP PUSH2 0x86D DUP2 PUSH2 0x847 JUMP JUMPDEST SWAP3 SWAP2 POP POP JUMP JUMPDEST PUSH1 0x0 PUSH1 0x20 DUP3 DUP5 SUB SLT ISZERO PUSH2 0x889 JUMPI PUSH2 0x888 PUSH2 0x833 JUMP JUMPDEST JUMPDEST PUSH1 0x0 PUSH2 0x897 DUP5 DUP3 DUP6 ADD PUSH2 0x85E JUMP JUMPDEST SWAP2 POP POP SWAP3 SWAP2 POP POP JUMP JUMPDEST PUSH2 0x8A9 DUP2 PUSH2 0x83D JUMP JUMPDEST DUP3 MSTORE POP POP JUMP JUMPDEST PUSH1 0x0 PUSH1 0x20 DUP3 ADD SWAP1 POP PUSH2 0x8C4 PUSH1 0x0 DUP4 ADD DUP5 PUSH2 0x8A0 JUMP JUMPDEST SWAP3 SWAP2 POP POP JUMP JUMPDEST PUSH1 0x0 PUSH20 0xFFFFFFFFFFFFFFFFFFFFFFFFFFFFFFFFFFFFFFFF DUP3 AND SWAP1 POP SWAP2 SWAP1 POP JUMP JUMPDEST PUSH1 0x0 PUSH2 0x8F5 DUP3 PUSH2 0x8CA JUMP JUMPDEST SWAP1 POP SWAP2 SWAP1 POP JUMP JUMPDEST PUSH2 0x905 DUP2 PUSH2 0x8EA JUMP JUMPDEST DUP2 EQ PUSH2 0x910 JUMPI PUSH1 0x0 DUP1 REVERT JUMPDEST POP JUMP JUMPDEST PUSH1 0x0 DUP2 CALLDATALOAD SWAP1 POP PUSH2 0x922 DUP2 PUSH2 0x8FC JUMP JUMPDEST SWAP3 SWAP2 POP POP JUMP JUMPDEST PUSH1 0x0 PUSH1 0x20 DUP3 DUP5 SUB SLT ISZERO PUSH2 0x93E JUMPI PUSH2 0x93D PUSH2 0x833 JUMP JUMPDEST JUMPDEST PUSH1 0x0 PUSH2 0x94C DUP5 DUP3 DUP6 ADD PUSH2 0x913 JUMP JUMPDEST SWAP2 POP POP SWAP3 SWAP2 POP POP JUMP JUMPDEST PUSH1 0x0 DUP2 ISZERO ISZERO SWAP1 POP SWAP2 SWAP1 POP JUMP JUMPDEST PUSH2 0x96A DUP2 PUSH2 0x955 JUMP JUMPDEST DUP3 MSTORE POP POP JUMP JUMPDEST PUSH1 0x0 PUSH1 0x20 DUP3 ADD SWAP1 POP PUSH2 0x985 PUSH1 0x0 DUP4 ADD DUP5 PUSH2 0x961 JUMP JUMPDEST SWAP3 SWAP2 POP POP JUMP JUMPDEST PUSH1 0x0 DUP2 MLOAD SWAP1 POP SWAP2 SWAP1 POP JUMP JUMPDEST PUSH1 0x0 DUP3 DUP3 MSTORE PUSH1 0x20 DUP3 ADD SWAP1 POP SWAP3 SWAP2 POP POP JUMP JUMPDEST PUSH1 0x0 JUMPDEST DUP4 DUP2 LT ISZERO PUSH2 0x9C5 JUMPI DUP1 DUP3 ADD MLOAD DUP2 DUP5 ADD MSTORE PUSH1 0x20 DUP2 ADD SWAP1 POP PUSH2 0x9AA JUMP JUMPDEST PUSH1 0x0 DUP5 DUP5 ADD MSTORE POP POP POP POP JUMP JUMPDEST PUSH1 0x0 PUSH1 0x1F NOT PUSH1 0x1F DUP4 ADD AND SWAP1 POP SWAP2 SWAP1 POP JUMP JUMPDEST PUSH1 0x0 PUSH2 0x9ED DUP3 PUSH2 0x98B JUMP JUMPDEST PUSH2 0x9F7 DUP2 DUP6 PUSH2 0x996 JUMP JUMPDEST SWAP4 POP PUSH2 0xA07 DUP2 DUP6 PUSH1 0x20 DUP7 ADD PUSH2 0x9A7 JUMP JUMPDEST PUSH2 0xA10 DUP2 PUSH2 0x9D1 JUMP JUMPDEST DUP5 ADD SWAP2 POP POP SWAP3 SWAP2 POP POP JUMP JUMPDEST PUSH1 0x0 PUSH1 0x80 DUP3 ADD SWAP1 POP PUSH2 0xA30 PUSH1 0x0 DUP4 ADD DUP8 PUSH2 0x8A0 JUMP JUMPDEST DUP2 DUP2 SUB PUSH1 0x20 DUP4 ADD MSTORE PUSH2 0xA42 DUP2 DUP7 PUSH2 0x9E2 JUMP JUMPDEST SWAP1 POP PUSH2 0xA51 PUSH1 0x40 DUP4 ADD DUP6 PUSH2 0x8A0 JUMP JUMPDEST PUSH2 0xA5E PUSH1 0x60 DUP4 ADD DUP5 PUSH2 0x8A0 JUMP JUMPDEST SWAP6 SWAP5 POP POP POP POP POP JUMP JUMPDEST PUSH1 0x0 DUP2 MLOAD SWAP1 POP SWAP2 SWAP1 POP JUMP JUMPDEST PUSH1 0x0 DUP3 DUP3 MSTORE PUSH1 0x20 DUP3 ADD SWAP1 POP SWAP3 SWAP2 POP POP JUMP JUMPDEST PUSH1 0x0 DUP2 SWAP1 POP PUSH1 0x20 DUP3 ADD SWAP1 POP SWAP2 SWAP1 POP JUMP JUMPDEST PUSH2 0xA9C DUP2 PUSH2 0x83D JUMP JUMPDEST DUP3 MSTORE POP POP JUMP JUMPDEST PUSH1 0x0 DUP3 DUP3 MSTORE PUSH1 0x20 DUP3 ADD SWAP1 POP SWAP3 SWAP2 POP POP JUMP JUMPDEST PUSH1 0x0 PUSH2 0xABE DUP3 PUSH2 0x98B JUMP JUMPDEST PUSH2 0xAC8 DUP2 DUP6 PUSH2 0xAA2 JUMP JUMPDEST SWAP4 POP PUSH2 0xAD8 DUP2 DUP6 PUSH1 0x20 DUP7 ADD PUSH2 0x9A7 JUMP JUMPDEST PUSH2 0xAE1 DUP2 PUSH2 0x9D1 JUMP JUMPDEST DUP5 ADD SWAP2 POP POP SWAP3 SWAP2 POP POP JUMP JUMPDEST PUSH1 0x0 PUSH1 0x80 DUP4 ADD PUSH1 0x0 DUP4 ADD MLOAD PUSH2 0xB04 PUSH1 0x0 DUP7 ADD DUP3 PUSH2 0xA93 JUMP JUMPDEST POP PUSH1 0x20 DUP4 ADD MLOAD DUP5 DUP3 SUB PUSH1 0x20 DUP7 ADD MSTORE PUSH2 0xB1C DUP3 DUP3 PUSH2 0xAB3 JUMP JUMPDEST SWAP2 POP POP PUSH1 0x40 DUP4 ADD MLOAD PUSH2 0xB31 PUSH1 0x40 DUP7 ADD DUP3 PUSH2 0xA93 JUMP JUMPDEST POP PUSH1 0x60 DUP4 ADD MLOAD PUSH2 0xB44 PUSH1 0x60 DUP7 ADD DUP3 PUSH2 0xA93 JUMP JUMPDEST POP DUP1 SWAP2 POP POP SWAP3 SWAP2 POP POP JUMP JUMPDEST PUSH1 0x0 PUSH2 0xB5B DUP4 DUP4 PUSH2 0xAEC JUMP JUMPDEST SWAP1 POP SWAP3 SWAP2 POP POP JUMP JUMPDEST PUSH1 0x0 PUSH1 0x20 DUP3 ADD SWAP1 POP SWAP2 SWAP1 POP JUMP JUMPDEST PUSH1 0x0 PUSH2 0xB7B DUP3 PUSH2 0xA67 JUMP JUMPDEST PUSH2 0xB85 DUP2 DUP6 PUSH2 0xA72 JUMP JUMPDEST SWAP4 POP DUP4 PUSH1 0x20 DUP3 MUL DUP6 ADD PUSH2 0xB97 DUP6 PUSH2 0xA83 JUMP JUMPDEST DUP1 PUSH1 0x0 JUMPDEST DUP6 DUP2 LT ISZERO PUSH2 0xBD3 JUMPI DUP5 DUP5 SUB DUP10 MSTORE DUP2 MLOAD PUSH2 0xBB4 DUP6 DUP3 PUSH2 0xB4F JUMP JUMPDEST SWAP5 POP PUSH2 0xBBF DUP4 PUSH2 0xB63 JUMP JUMPDEST SWAP3 POP PUSH1 0x20 DUP11 ADD SWAP10 POP POP PUSH1 0x1 DUP2 ADD SWAP1 POP PUSH2 0xB9B JUMP JUMPDEST POP DUP3 SWAP8 POP DUP8 SWAP6 POP POP POP POP POP POP SWAP3 SWAP2 POP POP JUMP JUMPDEST PUSH1 0x0 PUSH1 0x20 DUP3 ADD SWAP1 POP DUP2 DUP2 SUB PUSH1 0x0 DUP4 ADD MSTORE PUSH2 0xBFF DUP2 DUP5 PUSH2 0xB70 JUMP JUMPDEST SWAP1 POP SWAP3 SWAP2 POP POP JUMP JUMPDEST PUSH32 0x4E487B7100000000000000000000000000000000000000000000000000000000 PUSH1 0x0 MSTORE PUSH1 0x21 PUSH1 0x4 MSTORE PUSH1 0x24 PUSH1 0x0 REVERT JUMPDEST PUSH1 0x3 DUP2 LT PUSH2 0xC47 JUMPI PUSH2 0xC46 PUSH2 0xC07 JUMP JUMPDEST JUMPDEST POP JUMP JUMPDEST PUSH1 0x0 DUP2 SWAP1 POP PUSH2 0xC58 DUP3 PUSH2 0xC36 JUMP JUMPDEST SWAP2 SWAP1 POP JUMP JUMPDEST PUSH1 0x0 PUSH2 0xC68 DUP3 PUSH2 0xC4A JUMP JUMPDEST SWAP1 POP SWAP2 SWAP1 POP JUMP JUMPDEST PUSH2 0xC78 DUP2 PUSH2 0xC5D JUMP JUMPDEST DUP3 MSTORE POP POP JUMP JUMPDEST PUSH1 0x0 PUSH1 0x20 DUP3 ADD SWAP1 POP PUSH2 0xC93 PUSH1 0x0 DUP4 ADD DUP5 PUSH2 0xC6F JUMP JUMPDEST SWAP3 SWAP2 POP POP JUMP JUMPDEST PUSH1 0x0 DUP1 REVERT JUMPDEST PUSH1 0x0 DUP1 REVERT JUMPDEST PUSH32 0x4E487B7100000000000000000000000000000000000000000000000000000000 PUSH1 0x0 MSTORE PUSH1 0x41 PUSH1 0x4 MSTORE PUSH1 0x24 PUSH1 0x0 REVERT JUMPDEST PUSH2 0xCDB DUP3 PUSH2 0x9D1 JUMP JUMPDEST DUP2 ADD DUP2 DUP2 LT PUSH8 0xFFFFFFFFFFFFFFFF DUP3 GT OR ISZERO PUSH2 0xCFA JUMPI PUSH2 0xCF9 PUSH2 0xCA3 JUMP JUMPDEST JUMPDEST DUP1 PUSH1 0x40 MSTORE POP POP POP JUMP JUMPDEST PUSH1 0x0 PUSH2 0xD0D PUSH2 0x829 JUMP JUMPDEST SWAP1 POP PUSH2 0xD19 DUP3 DUP3 PUSH2 0xCD2 JUMP JUMPDEST SWAP2 SWAP1 POP JUMP JUMPDEST PUSH1 0x0 PUSH8 0xFFFFFFFFFFFFFFFF DUP3 GT ISZERO PUSH2 0xD39 JUMPI PUSH2 0xD38 PUSH2 0xCA3 JUMP JUMPDEST JUMPDEST PUSH2 0xD42 DUP3 PUSH2 0x9D1 JUMP JUMPDEST SWAP1 POP PUSH1 0x20 DUP2 ADD SWAP1 POP SWAP2 SWAP1 POP JUMP JUMPDEST DUP3 DUP2 DUP4 CALLDATACOPY PUSH1 0x0 DUP4 DUP4 ADD MSTORE POP POP POP JUMP JUMPDEST PUSH1 0x0 PUSH2 0xD71 PUSH2 0xD6C DUP5 PUSH2 0xD1E JUMP JUMPDEST PUSH2 0xD03 JUMP JUMPDEST SWAP1 POP DUP3 DUP2 MSTORE PUSH1 0x20 DUP2 ADD DUP5 DUP5 DUP5 ADD GT ISZERO PUSH2 0xD8D JUMPI PUSH2 0xD8C PUSH2 0xC9E JUMP JUMPDEST JUMPDEST PUSH2 0xD98 DUP5 DUP3 DUP6 PUSH2 0xD4F JUMP JUMPDEST POP SWAP4 SWAP3 POP POP POP JUMP JUMPDEST PUSH1 0x0 DUP3 PUSH1 0x1F DUP4 ADD SLT PUSH2 0xDB5 JUMPI PUSH2 0xDB4 PUSH2 0xC99 JUMP JUMPDEST JUMPDEST DUP2 CALLDATALOAD PUSH2 0xDC5 DUP5 DUP3 PUSH1 0x20 DUP7 ADD PUSH2 0xD5E JUMP JUMPDEST SWAP2 POP POP SWAP3 SWAP2 POP POP JUMP JUMPDEST PUSH1 0x0 DUP1 PUSH1 0x40 DUP4 DUP6 SUB SLT ISZERO PUSH2 0xDE5 JUMPI PUSH2 0xDE4 PUSH2 0x833 JUMP JUMPDEST JUMPDEST PUSH1 0x0 DUP4 ADD CALLDATALOAD PUSH8 0xFFFFFFFFFFFFFFFF DUP2 GT ISZERO PUSH2 0xE03 JUMPI PUSH2 0xE02 PUSH2 0x838 JUMP JUMPDEST JUMPDEST PUSH2 0xE0F DUP6 DUP3 DUP7 ADD PUSH2 0xDA0 JUMP JUMPDEST SWAP3 POP POP PUSH1 0x20 PUSH2 0xE20 DUP6 DUP3 DUP7 ADD PUSH2 0x85E JUMP JUMPDEST SWAP2 POP POP SWAP3 POP SWAP3 SWAP1 POP JUMP JUMPDEST PUSH32 0x4E487B7100000000000000000000000000000000000000000000000000000000 PUSH1 0x0 MSTORE PUSH1 0x11 PUSH1 0x4 MSTORE PUSH1 0x24 PUSH1 0x0 REVERT JUMPDEST PUSH1 0x0 PUSH2 0xE64 DUP3 PUSH2 0x83D JUMP JUMPDEST SWAP2 POP PUSH2 0xE6F DUP4 PUSH2 0x83D JUMP JUMPDEST SWAP3 POP DUP3 DUP3 ADD SWAP1 POP DUP1 DUP3 GT ISZERO PUSH2 0xE87 JUMPI PUSH2 0xE86 PUSH2 0xE2A JUMP JUMPDEST JUMPDEST SWAP3 SWAP2 POP POP JUMP JUMPDEST PUSH32 0x4E487B7100000000000000000000000000000000000000000000000000000000 PUSH1 0x0 MSTORE PUSH1 0x32 PUSH1 0x4 MSTORE PUSH1 0x24 PUSH1 0x0 REVERT JUMPDEST PUSH1 0x0 PUSH2 0xEC7 DUP3 PUSH2 0x83D JUMP JUMPDEST SWAP2 POP PUSH32 0xFFFFFFFFFFFFFFFFFFFFFFFFFFFFFFFFFFFFFFFFFFFFFFFFFFFFFFFFFFFFFFFF DUP3 SUB PUSH2 0xEF9 JUMPI PUSH2 0xEF8 PUSH2 0xE2A JUMP JUMPDEST JUMPDEST PUSH1 0x1 DUP3 ADD SWAP1 POP SWAP2 SWAP1 POP JUMP JUMPDEST PUSH32 0x4E487B7100000000000000000000000000000000000000000000000000000000 PUSH1 0x0 MSTORE PUSH1 0x22 PUSH1 0x4 MSTORE PUSH1 0x24 PUSH1 0x0 REVERT JUMPDEST PUSH1 0x0 PUSH1 0x2 DUP3 DIV SWAP1 POP PUSH1 0x1 DUP3 AND DUP1 PUSH2 0xF4B JUMPI PUSH1 0x7F DUP3 AND SWAP2 POP JUMPDEST PUSH1 0x20 DUP3 LT DUP2 SUB PUSH2 0xF5E JUMPI PUSH2 0xF5D PUSH2 0xF04 JUMP JUMPDEST JUMPDEST POP SWAP2 SWAP1 POP JUMP JUMPDEST PUSH1 0x0 DUP2 SWAP1 POP DUP2 PUSH1 0x0 MSTORE PUSH1 0x20 PUSH1 0x0 KECCAK256 SWAP1 POP SWAP2 SWAP1 POP JUMP JUMPDEST PUSH1 0x0 PUSH1 0x20 PUSH1 0x1F DUP4 ADD DIV SWAP1 POP SWAP2 SWAP1 POP JUMP JUMPDEST PUSH1 0x0 DUP3 DUP3 SHL SWAP1 POP SWAP3 SWAP2 POP POP JUMP JUMPDEST PUSH1 0x0 PUSH1 0x8 DUP4 MUL PUSH2 0xFC6 PUSH32 0xFFFFFFFFFFFFFFFFFFFFFFFFFFFFFFFFFFFFFFFFFFFFFFFFFFFFFFFFFFFFFFFF DUP3 PUSH2 0xF89 JUMP JUMPDEST PUSH2 0xFD0 DUP7 DUP4 PUSH2 0xF89 JUMP JUMPDEST SWAP6 POP DUP1 NOT DUP5 AND SWAP4 POP DUP1 DUP7 AND DUP5 OR SWAP3 POP POP POP SWAP4 SWAP3 POP POP POP JUMP JUMPDEST PUSH1 0x0 DUP2 SWAP1 POP SWAP2 SWAP1 POP JUMP JUMPDEST PUSH1 0x0 PUSH2 0x100D PUSH2 0x1008 PUSH2 0x1003 DUP5 PUSH2 0x83D JUMP JUMPDEST PUSH2 0xFE8 JUMP JUMPDEST PUSH2 0x83D JUMP JUMPDEST SWAP1 POP SWAP2 SWAP1 POP JUMP JUMPDEST PUSH1 0x0 DUP2 SWAP1 POP SWAP2 SWAP1 POP JUMP JUMPDEST PUSH2 0x1027 DUP4 PUSH2 0xFF2 JUMP JUMPDEST PUSH2 0x103B PUSH2 0x1033 DUP3 PUSH2 0x1014 JUMP JUMPDEST DUP5 DUP5 SLOAD PUSH2 0xF96 JUMP JUMPDEST DUP3 SSTORE POP POP POP POP JUMP JUMPDEST PUSH1 0x0 SWAP1 JUMP JUMPDEST PUSH2 0x1050 PUSH2 0x1043 JUMP JUMPDEST PUSH2 0x105B DUP2 DUP5 DUP5 PUSH2 0x101E JUMP JUMPDEST POP POP POP JUMP JUMPDEST JUMPDEST DUP2 DUP2 LT ISZERO PUSH2 0x107F JUMPI PUSH2 0x1074 PUSH1 0x0 DUP3 PUSH2 0x1048 JUMP JUMPDEST PUSH1 0x1 DUP2 ADD SWAP1 POP PUSH2 0x1061 JUMP JUMPDEST POP POP JUMP JUMPDEST PUSH1 0x1F DUP3 GT ISZERO PUSH2 0x10C4 JUMPI PUSH2 0x1095 DUP2 PUSH2 0xF64 JUMP JUMPDEST PUSH2 0x109E DUP5 PUSH2 0xF79 JUMP JUMPDEST DUP2 ADD PUSH1 0x20 DUP6 LT ISZERO PUSH2 0x10AD JUMPI DUP2 SWAP1 POP JUMPDEST PUSH2 0x10C1 PUSH2 0x10B9 DUP6 PUSH2 0xF79 JUMP JUMPDEST DUP4 ADD DUP3 PUSH2 0x1060 JUMP JUMPDEST POP POP JUMPDEST POP POP POP JUMP JUMPDEST PUSH1 0x0 DUP3 DUP3 SHR SWAP1 POP SWAP3 SWAP2 POP POP JUMP JUMPDEST PUSH1 0x0 PUSH2 0x10E7 PUSH1 0x0 NOT DUP5 PUSH1 0x8 MUL PUSH2 0x10C9 JUMP JUMPDEST NOT DUP1 DUP4 AND SWAP2 POP POP SWAP3 SWAP2 POP POP JUMP JUMPDEST PUSH1 0x0 PUSH2 0x1100 DUP4 DUP4 PUSH2 0x10D6 JUMP JUMPDEST SWAP2 POP DUP3 PUSH1 0x2 MUL DUP3 OR SWAP1 POP SWAP3 SWAP2 POP POP JUMP JUMPDEST PUSH2 0x1119 DUP3 PUSH2 0x98B JUMP JUMPDEST PUSH8 0xFFFFFFFFFFFFFFFF DUP2 GT ISZERO PUSH2 0x1132 JUMPI PUSH2 0x1131 PUSH2 0xCA3 JUMP JUMPDEST JUMPDEST PUSH2 0x113C DUP3 SLOAD PUSH2 0xF33 JUMP JUMPDEST PUSH2 0x1147 DUP3 DUP3 DUP6 PUSH2 0x1083 JUMP JUMPDEST PUSH1 0x0 PUSH1 0x20 SWAP1 POP PUSH1 0x1F DUP4 GT PUSH1 0x1 DUP2 EQ PUSH2 0x117A JUMPI PUSH1 0x0 DUP5 ISZERO PUSH2 0x1168 JUMPI DUP3 DUP8 ADD MLOAD SWAP1 POP JUMPDEST PUSH2 0x1172 DUP6 DUP3 PUSH2 0x10F4 JUMP JUMPDEST DUP7 SSTORE POP PUSH2 0x11DA JUMP JUMPDEST PUSH1 0x1F NOT DUP5 AND PUSH2 0x1188 DUP7 PUSH2 0xF64 JUMP JUMPDEST PUSH1 0x0 JUMPDEST DUP3 DUP2 LT ISZERO PUSH2 0x11B0 JUMPI DUP5 DUP10 ADD MLOAD DUP3 SSTORE PUSH1 0x1 DUP3 ADD SWAP2 POP PUSH1 0x20 DUP6 ADD SWAP5 POP PUSH1 0x20 DUP2 ADD SWAP1 POP PUSH2 0x118B JUMP JUMPDEST DUP7 DUP4 LT ISZERO PUSH2 0x11CD JUMPI DUP5 DUP10 ADD MLOAD PUSH2 0x11C9 PUSH1 0x1F DUP10 AND DUP3 PUSH2 0x10D6 JUMP JUMPDEST DUP4 SSTORE POP JUMPDEST PUSH1 0x1 PUSH1 0x2 DUP9 MUL ADD DUP9 SSTORE POP POP POP JUMPDEST POP POP POP POP POP POP JUMP INVALID LOG2 PUSH5 0x6970667358 0x22 SLT KECCAK256 0xAE SHR 0xB8 0xC9 PUSH9 0x82C2D0D513BA091052 0xCA 0x49 0x23 SELFBALANCE 0xE MSTORE8 0xDE CALLDATALOAD 0xC8 0x5C SMOD 0xDA ADDMOD 0xD9 PUSH30 0xC95E0A64736F6C6343000811003300000000000000000000000000000000 "},"methodIdentifiers":{"addCandidate(string,uint256)":"e23cec7b","candidate(address)":"bf4c988e","candidateDetails(uint256)":"6247e532","getCandidate()":"70218b85","getCandidateNumber()":"364dff25","state()":"c19d93fb","vote(uint256)":"0121b93f","votetest(address)":"5d547488","winner()":"dfbf53ae","winningProposal()":"609ff1bd"}}}}}