{
  "_format": "hh-sol-artifact-1",
  "contractName": "Voting",
  "sourceName": "contracts/Voting.sol",
  "abi": [
    {
      "inputs": [],
      "stateMutability": "nonpayable",
      "type": "constructor"
    },
    {
      "inputs": [
        {
          "internalType": "string",
          "name": "_name",
          "type": "string"
        },
        {
          "internalType": "uint256",
          "name": "_budget",
          "type": "uint256"
        }
      ],
      "name": "addCandidate",
      "outputs": [],
      "stateMutability": "nonpayable",
      "type": "function"
    },
    {
      "inputs": [
        {
          "internalType": "address",
          "name": "",
          "type": "address"
        }
      ],
      "name": "candidate",
      "outputs": [
        {
          "internalType": "uint256",
          "name": "",
          "type": "uint256"
        }
      ],
      "stateMutability": "view",
      "type": "function"
    },
    {
      "inputs": [
        {
          "internalType": "uint256",
          "name": "",
          "type": "uint256"
        }
      ],
      "name": "candidateDetails",
      "outputs": [
        {
          "internalType": "uint256",
          "name": "candidateId",
          "type": "uint256"
        },
        {
          "internalType": "string",
          "name": "name",
          "type": "string"
        },
        {
          "internalType": "uint256",
          "name": "budget",
          "type": "uint256"
        },
        {
          "internalType": "uint256",
          "name": "voteCount",
          "type": "uint256"
        }
      ],
      "stateMutability": "view",
      "type": "function"
    },
    {
      "inputs": [],
      "name": "getCandidate",
      "outputs": [
        {
          "components": [
            {
              "internalType": "uint256",
              "name": "candidateId",
              "type": "uint256"
            },
            {
              "internalType": "string",
              "name": "name",
              "type": "string"
            },
            {
              "internalType": "uint256",
              "name": "budget",
              "type": "uint256"
            },
            {
              "internalType": "uint256",
              "name": "voteCount",
              "type": "uint256"
            }
          ],
          "internalType": "struct Voting.Candidate[]",
          "name": "",
          "type": "tuple[]"
        }
      ],
      "stateMutability": "view",
      "type": "function"
    },
    {
      "inputs": [],
      "name": "getCandidateNumber",
      "outputs": [
        {
          "internalType": "uint256",
          "name": "",
          "type": "uint256"
        }
      ],
      "stateMutability": "view",
      "type": "function"
    },
    {
      "inputs": [],
      "name": "state",
      "outputs": [
        {
          "internalType": "enum Voting.State",
          "name": "",
          "type": "uint8"
        }
      ],
      "stateMutability": "view",
      "type": "function"
    },
    {
      "inputs": [
        {
          "internalType": "uint256",
          "name": "candidateId",
          "type": "uint256"
        }
      ],
      "name": "vote",
      "outputs": [],
      "stateMutability": "nonpayable",
      "type": "function"
    },
    {
      "inputs": [
        {
          "internalType": "address",
          "name": "",
          "type": "address"
        }
      ],
      "name": "votetest",
      "outputs": [
        {
          "internalType": "bool",
          "name": "",
          "type": "bool"
        }
      ],
      "stateMutability": "view",
      "type": "function"
    },
    {
      "inputs": [],
      "name": "winner",
      "outputs": [
        {
          "internalType": "uint256",
          "name": "candidateId",
          "type": "uint256"
        },
        {
          "internalType": "string",
          "name": "name",
          "type": "string"
        },
        {
          "internalType": "uint256",
          "name": "budget",
          "type": "uint256"
        },
        {
          "internalType": "uint256",
          "name": "voteCount",
          "type": "uint256"
        }
      ],
      "stateMutability": "view",
      "type": "function"
    },
    {
      "inputs": [],
      "name": "winningProposal",
      "outputs": [
        {
          "internalType": "uint256",
          "name": "winningProposal_",
          "type": "uint256"
        }
      ],
      "stateMutability": "view",
      "type": "function"
    }
  ],
  "bytecode": "0x60806040523480156200001157600080fd5b506000808190555060006001819055506000600560006101000a81548160ff021916908360028111156200004a576200004962000138565b5b02179055506000600190505b600381116200013157600a60405180608001604052808381526020016040518060400160405280600481526020017f54657374000000000000000000000000000000000000000000000000000000008152508152602001614e20815260200160008152509080600181540180825580915050600190039060005260206000209060040201600090919091909150600082015181600001556020820151816001019081620001049190620003e1565b506040820151816002015560608201518160030155505080806200012890620004f7565b91505062000056565b5062000544565b7f4e487b7100000000000000000000000000000000000000000000000000000000600052602160045260246000fd5b600081519050919050565b7f4e487b7100000000000000000000000000000000000000000000000000000000600052604160045260246000fd5b7f4e487b7100000000000000000000000000000000000000000000000000000000600052602260045260246000fd5b60006002820490506001821680620001e957607f821691505b602082108103620001ff57620001fe620001a1565b5b50919050565b60008190508160005260206000209050919050565b60006020601f8301049050919050565b600082821b905092915050565b600060088302620002697fffffffffffffffffffffffffffffffffffffffffffffffffffffffffffffffff826200022a565b6200027586836200022a565b95508019841693508086168417925050509392505050565b6000819050919050565b6000819050919050565b6000620002c2620002bc620002b6846200028d565b62000297565b6200028d565b9050919050565b6000819050919050565b620002de83620002a1565b620002f6620002ed82620002c9565b84845462000237565b825550505050565b600090565b6200030d620002fe565b6200031a818484620002d3565b505050565b5b8181101562000342576200033660008262000303565b60018101905062000320565b5050565b601f82111562000391576200035b8162000205565b62000366846200021a565b8101602085101562000376578190505b6200038e62000385856200021a565b8301826200031f565b50505b505050565b600082821c905092915050565b6000620003b66000198460080262000396565b1980831691505092915050565b6000620003d18383620003a3565b9150826002028217905092915050565b620003ec8262000167565b67ffffffffffffffff81111562000408576200040762000172565b5b620004148254620001d0565b6200042182828562000346565b600060209050601f83116001811462000459576000841562000444578287015190505b620004508582620003c3565b865550620004c0565b601f198416620004698662000205565b60005b8281101562000493578489015182556001820191506020850194506020810190506200046c565b86831015620004b35784890151620004af601f891682620003a3565b8355505b6001600288020188555050505b505050505050565b7f4e487b7100000000000000000000000000000000000000000000000000000000600052601160045260246000fd5b600062000504826200028d565b91507fffffffffffffffffffffffffffffffffffffffffffffffffffffffffffffffff8203620005395762000538620004c8565b5b600182019050919050565b61121880620005546000396000f3fe608060405234801561001057600080fd5b506004361061009e5760003560e01c806370218b851161006657806370218b851461015e578063bf4c988e1461017c578063c19d93fb146101ac578063dfbf53ae146101ca578063e23cec7b146101eb5761009e565b80630121b93f146100a3578063364dff25146100bf5780635d547488146100dd578063609ff1bd1461010d5780636247e5321461012b575b600080fd5b6100bd60048036038101906100b89190610873565b610207565b005b6100c761027a565b6040516100d491906108af565b60405180910390f35b6100f760048036038101906100f29190610928565b610283565b6040516101049190610970565b60405180910390f35b6101156102a3565b60405161012291906108af565b60405180910390f35b61014560048036038101906101409190610873565b61032b565b6040516101559493929190610a1b565b60405180910390f35b6101666103e3565b6040516101739190610be5565b60405180910390f35b61019660048036038101906101919190610928565b6104f2565b6040516101a391906108af565b60405180910390f35b6101b461050a565b6040516101c19190610c7e565b60405180910390f35b6101d261051d565b6040516101e29493929190610a1b565b60405180910390f35b61020560048036038101906102009190610dce565b6105c3565b005b600180600281111561021c5761021b610c07565b5b600560009054906101000a900460ff16600281111561023e5761023d610c07565b5b1461024857600080fd5b600160026000848152602001908152602001600020600301600082825461026f9190610e59565b925050819055505050565b60008054905090565b60046020528060005260406000206000915054906101000a900460ff1681565b6000806000905060005b600a805490508110156103265781600a82815481106102cf576102ce610e8d565b5b906000526020600020906004020160030154111561031357600a81815481106102fb576102fa610e8d565b5b90600052602060002090600402016003015491508092505b808061031e90610ebc565b9150506102ad565b505090565b600260205280600052604060002060009150905080600001549080600101805461035490610f33565b80601f016020809104026020016040519081016040528092919081815260200182805461038090610f33565b80156103cd5780601f106103a2576101008083540402835291602001916103cd565b820191906000526020600020905b8154815290600101906020018083116103b057829003601f168201915b5050505050908060020154908060030154905084565b6060600a805480602002602001604051908101604052809291908181526020016000905b828210156104e957838290600052602060002090600402016040518060800160405290816000820154815260200160018201805461044490610f33565b80601f016020809104026020016040519081016040528092919081815260200182805461047090610f33565b80156104bd5780601f10610492576101008083540402835291602001916104bd565b820191906000526020600020905b8154815290600101906020018083116104a057829003601f168201915b505050505081526020016002820154815260200160038201548152505081526020019060010190610407565b50505050905090565b60036020528060005260406000206000915090505481565b600560009054906101000a900460ff1681565b600680600001549080600101805461053490610f33565b80601f016020809104026020016040519081016040528092919081815260200182805461056090610f33565b80156105ad5780601f10610582576101008083540402835291602001916105ad565b820191906000526020600020905b81548152906001019060200180831161059057829003601f168201915b5050505050908060020154908060030154905084565b6001600360003373ffffffffffffffffffffffffffffffffffffffff1673ffffffffffffffffffffffffffffffffffffffff168152602001908152602001600020541061060f57600080fd5b600080600281111561062457610623610c07565b5b600560009054906101000a900460ff16600281111561064657610645610c07565b5b1461065057600080fd5b60056000541061065f57600080fd5b600060405180608001604052806000548152602001858152602001848152602001600081525090508060026000805481526020019081526020016000206000820151816000015560208201518160010190816106bb9190611110565b506040820151816002015560608201518160030155905050600a81908060018154018082558091505060019003906000526020600020906004020160009091909190915060008201518160000155602082015181600101908161071e9190611110565b506040820151816002015560608201518160030155505060008081548092919061074790610ebc565b9190505550600360003373ffffffffffffffffffffffffffffffffffffffff1673ffffffffffffffffffffffffffffffffffffffff168152602001908152602001600020600081548092919061079c90610ebc565b91905055506005600054106107b4576107b36107ba565b5b50505050565b60008060028111156107cf576107ce610c07565b5b600560009054906101000a900460ff1660028111156107f1576107f0610c07565b5b146107fb57600080fd5b6001600560006101000a81548160ff0219169083600281111561082157610820610c07565b5b021790555050565b6000604051905090565b600080fd5b600080fd5b6000819050919050565b6108508161083d565b811461085b57600080fd5b50565b60008135905061086d81610847565b92915050565b60006020828403121561088957610888610833565b5b60006108978482850161085e565b91505092915050565b6108a98161083d565b82525050565b60006020820190506108c460008301846108a0565b92915050565b600073ffffffffffffffffffffffffffffffffffffffff82169050919050565b60006108f5826108ca565b9050919050565b610905816108ea565b811461091057600080fd5b50565b600081359050610922816108fc565b92915050565b60006020828403121561093e5761093d610833565b5b600061094c84828501610913565b91505092915050565b60008115159050919050565b61096a81610955565b82525050565b60006020820190506109856000830184610961565b92915050565b600081519050919050565b600082825260208201905092915050565b60005b838110156109c55780820151818401526020810190506109aa565b60008484015250505050565b6000601f19601f8301169050919050565b60006109ed8261098b565b6109f78185610996565b9350610a078185602086016109a7565b610a10816109d1565b840191505092915050565b6000608082019050610a3060008301876108a0565b8181036020830152610a4281866109e2565b9050610a5160408301856108a0565b610a5e60608301846108a0565b95945050505050565b600081519050919050565b600082825260208201905092915050565b6000819050602082019050919050565b610a9c8161083d565b82525050565b600082825260208201905092915050565b6000610abe8261098b565b610ac88185610aa2565b9350610ad88185602086016109a7565b610ae1816109d1565b840191505092915050565b6000608083016000830151610b046000860182610a93565b5060208301518482036020860152610b1c8282610ab3565b9150506040830151610b316040860182610a93565b506060830151610b446060860182610a93565b508091505092915050565b6000610b5b8383610aec565b905092915050565b6000602082019050919050565b6000610b7b82610a67565b610b858185610a72565b935083602082028501610b9785610a83565b8060005b85811015610bd35784840389528151610bb48582610b4f565b9450610bbf83610b63565b925060208a01995050600181019050610b9b565b50829750879550505050505092915050565b60006020820190508181036000830152610bff8184610b70565b905092915050565b7f4e487b7100000000000000000000000000000000000000000000000000000000600052602160045260246000fd5b60038110610c4757610c46610c07565b5b50565b6000819050610c5882610c36565b919050565b6000610c6882610c4a565b9050919050565b610c7881610c5d565b82525050565b6000602082019050610c936000830184610c6f565b92915050565b600080fd5b600080fd5b7f4e487b7100000000000000000000000000000000000000000000000000000000600052604160045260246000fd5b610cdb826109d1565b810181811067ffffffffffffffff82111715610cfa57610cf9610ca3565b5b80604052505050565b6000610d0d610829565b9050610d198282610cd2565b919050565b600067ffffffffffffffff821115610d3957610d38610ca3565b5b610d42826109d1565b9050602081019050919050565b82818337600083830152505050565b6000610d71610d6c84610d1e565b610d03565b905082815260208101848484011115610d8d57610d8c610c9e565b5b610d98848285610d4f565b509392505050565b600082601f830112610db557610db4610c99565b5b8135610dc5848260208601610d5e565b91505092915050565b60008060408385031215610de557610de4610833565b5b600083013567ffffffffffffffff811115610e0357610e02610838565b5b610e0f85828601610da0565b9250506020610e208582860161085e565b9150509250929050565b7f4e487b7100000000000000000000000000000000000000000000000000000000600052601160045260246000fd5b6000610e648261083d565b9150610e6f8361083d565b9250828201905080821115610e8757610e86610e2a565b5b92915050565b7f4e487b7100000000000000000000000000000000000000000000000000000000600052603260045260246000fd5b6000610ec78261083d565b91507fffffffffffffffffffffffffffffffffffffffffffffffffffffffffffffffff8203610ef957610ef8610e2a565b5b600182019050919050565b7f4e487b7100000000000000000000000000000000000000000000000000000000600052602260045260246000fd5b60006002820490506001821680610f4b57607f821691505b602082108103610f5e57610f5d610f04565b5b50919050565b60008190508160005260206000209050919050565b60006020601f8301049050919050565b600082821b905092915050565b600060088302610fc67fffffffffffffffffffffffffffffffffffffffffffffffffffffffffffffffff82610f89565b610fd08683610f89565b95508019841693508086168417925050509392505050565b6000819050919050565b600061100d6110086110038461083d565b610fe8565b61083d565b9050919050565b6000819050919050565b61102783610ff2565b61103b61103382611014565b848454610f96565b825550505050565b600090565b611050611043565b61105b81848461101e565b505050565b5b8181101561107f57611074600082611048565b600181019050611061565b5050565b601f8211156110c45761109581610f64565b61109e84610f79565b810160208510156110ad578190505b6110c16110b985610f79565b830182611060565b50505b505050565b600082821c905092915050565b60006110e7600019846008026110c9565b1980831691505092915050565b600061110083836110d6565b9150826002028217905092915050565b6111198261098b565b67ffffffffffffffff81111561113257611131610ca3565b5b61113c8254610f33565b611147828285611083565b600060209050601f83116001811461117a5760008415611168578287015190505b61117285826110f4565b8655506111da565b601f19841661118886610f64565b60005b828110156111b05784890151825560018201915060208501945060208101905061118b565b868310156111cd57848901516111c9601f8916826110d6565b8355505b6001600288020188555050505b50505050505056fea2646970667358221220ae1cb8c96882c2d0d513ba091052ca4923470e53de35c85c07da08d97dc95e0a64736f6c63430008110033",
  "linkReferences": {},
  "deployedLinkReferences": {}
}